:020000040800F2
:10000000B040002079020008951B0008A1180008E4
:10001000911B000891070008DB5C0008000000004D
:100020000000000000000000000000005F37000832
:100030002116000800000000551C00087538000853
:10004000930200089302000893020008930200083C
:10005000930200089302000893020008930200082C
:10006000930200089302000893020008930200081C
:10007000930200089302000893020008930200080C
:1000800093020008930200089302000893020008FC
:1000900093020008930200089302000893020008EC
:1000A00093020008930200089302000893020008DC
:1000B00093020008930200089302000893020008CC
:1000C00093020008930200089302000893020008BC
:1000D00093020008E1380008930200089302000828
:1000E000930200089302000893020008930200089C
:1000F000930200089302000893020008930200088C
:1001000093020008DD27000893020008930200080C
:10011000930200089302000893020008930200086B
:10012000930200089302000893020008930200085B
:10013000930200089302000893020008930200084B
:10014000930200089302000893020008930200083B
:10015000930200089302000893020008930200082B
:100160009302000893020008351C0008251C0008B3
:1001700093020008451C000893020008930200083F
:10018000930200089302000800F002F800F064F8FF
:100190000AA090E8000C82448344AAF10107DA45E2
:1001A00001D100F059F8AFF2090EBAE80F0013F0D0
:1001B000010F18BFFB1A43F00103184790610000BC
:1001C000B06100000A444FF0000C10F8013B13F03E
:1001D000070408BF10F8014B1D1108BF10F8015BA0
:1001E000641E05D010F8016B641E01F8016BF9D193
:1001F00013F0080F1EBF10F8014BAD1C0C1B09D1EA
:100200006D1E58BF01F801CBFAD505E014F8016B5B
:1002100001F8016B6D1EF9D59142D6D370470000ED
:100220000023002400250026103A28BF78C1FBD8FF
:10023000520728BF30C148BF0B607047642900F0E7
:10024000E780782900F02081002070471FB506F074
:100250003DF81FBD10B510BD00F06AFA1146FFF75A
:10026000F5FF05F08FFF00F088FA03B4FFF7F2FF07
:1002700003BC05F03BFD00000948804709480047E2
:10028000FEE7FEE7FEE7FEE7FEE7FEE7FEE7FEE746
:10029000FEE7FEE704480549054A064B70470000A3
:1002A0007938000889010008B03A0020B0400020E9
:1002B000B03C0020B03C0020704753EA020C00F034
:1002C00069802DE9F04B4FF00006002B1FBFB3FAF9
:1002D00083F503FA05F424FA05F65E4012BF1643CF
:1002E000B2FA82F502FA05F4C5F120051EBF22FA22
:1002F00005FC44EA0C04203556EA044C4FEA144449
:1003000018BF641C4FF000084FF00009904271EBD9
:10031000030C39D3002919BFB1FA81F701FA07F6A6
:10032000B0FA80F700FA07F6C7F120071EBF20FADF
:1003300007FC46EA0C062037B6FBF4FCA7EB0507E2
:10034000103F07F01F0BCBF120060CFA0BFB2CFA29
:1003500006F644BFB3460026202FA4BF5E464FF0EA
:10036000000B5BEA060C08BF4FF0010B19EB0B0901
:10037000ABFB027C48EB0608C01B06FB02CC0BFB68
:1003800003CC71EB0C01C1E70B46024641464846DF
:10039000BDE8F08B13B54FF000004FF00001AFF354
:1003A0000080BDE81C4070470FB4044910B503AA93
:1003B000029800F08FF910BC5DF814FB900000204B
:1003C00070B5044685690068C10601D5302600E095
:1003D0002026C00707D070BDD4E9012130469047E0
:1003E000206A401C20626D1EF6D570BD70B50446B3
:1003F00085690078C00707D170BDD4E901212020AC
:100400009047206A401C20626D1EF6D570BD00002A
:100410002DE9F0410646002410687529314616A5DD
:1004200010D0AFF30080002802DA404213A507E0A5
:1004300031688A0701D512A502E0490704D511A544
:10044000012401E0AFF3008000210A2206F1240715
:1004500009E0B0FBF2FCB0FBF2F302FB1C00303011
:1004600078541846491C0028F3D123462A463046C2
:10047000BDE8F04100F0D4B8000000002D000000FD
:100480002B0000002000000070B504460D462146F8
:100490001068AFF300802188090502D50F4A7A441D
:1004A00002E00E4A7A440E32002104F1240305E0F2
:1004B00000F00F060009965D5E54491C0028F7D134
:1004C00020780023000704D5702D02D009B1022343
:1004D00011322046BDE8704000F0A2B86F5E000007
:1004E0002DE9F05F894604464FF0000ADFF824B199
:1004F000FB44C0F820A02046E168884700287DD052
:10050000252806D0D4E901219047206A401C2062AA
:10051000F1E700255F462046E16888472028064627
:1005200007DB312E05D2B81910F8200C08B10543AD
:10053000F1E7A80701D525F00405C4F81CA00027A1
:10054000C4F818A02A2E09D0304605F0C8FB38B3ED
:1005500004EB8708303EC8F8186019E059F8041B0E
:10056000204604EB87029161E1688847012F064627
:1005700018D1E069002820DA25F020051DE0D8F820
:10058000180000EB800006EB40003038C8F8180077
:100590002046E1688847064605F0A1FB0028EED119
:1005A000012F0AD02E2E08D12046E16888477F1CF3
:1005B0000646022F45F02005C4DBA069002803DAB7
:1005C000404245F00105A061E80701D025F0100583
:1005D000A6B1A6F14100192802D8203645F40065DD
:1005E0004A463146204625604D46FFF727FE60B15A
:1005F000012807D0ED1D25F0070000E007E000F11D
:10060000080978E705F1040975E730467AE7206ABA
:10061000BDE8F09F455E0000704770477047704727
:100620002DE9F0470D4699469246044600F124080C
:100630000168880604D5E06921F01001216000E01E
:100640000120A84201DD471B00E00027A1697A19BB
:1006500002EB0900081AA0612078C00602D42046E7
:10066000FFF7AEFE002608E0D4E901211AF80600E3
:100670009047206A401C761C20624E45F4DB2078AF
:10068000C0060AD52046FFF79BFE06E0D4E901210B
:1006900030209047206A401C2062381EA7F10107D5
:1006A000F4DC07E0D4E9012118F805009047206A3E
:1006B000401C2062281EA5F10105F3DC2046FFF74F
:1006C00095FE2078000602D50220BDE8F0870120C3
:1006D000FBE70000074B70B50D467B4400F011F8B6
:1006E0000446284600F020F810B14FF0FF3070BDEE
:1006F000204670BDD356000001694A1C026108788B
:10070000704700B58FB0CDE9013100210591054951
:100710007944CDE9031011466846FFF7E1FE0FB0BA
:1007200000BD0000E5FFFFFF007B00F08000704788
:10073000754600F029F8AE4605006946534620F09C
:100740000700854618B020B5FFF7A4FDBDE820409E
:100750004FF000064FF000074FF000084FF0000B7D
:1007600021F00701AC46ACE8C009ACE8C009ACE830
:10077000C009ACE8C0098D4670470446AFF300805D
:100780002046FFF772FD0000004870474C3A0020F9
:1007900000BFFEE770B500254FF4803400E0641E12
:1007A00024B1802001F0EEFF0028F8D014B9032511
:1007B000284670BD40F2FF5001F0A0FF2846F8E740
:1007C0002DE9F041064600274848056801E0474802
:1007D000056805F045000028F9D005F0040030B1A7
:1007E0000327042001F08AFF3846BDE8F08105F0B8
:1007F000010028B10127012001F080FF3846F4E70D
:1008000001F0BAFFB04202D010273846EDE740F2BF
:10081000FF5001F073FF002001F0D4FF044634487C
:10082000204008B93846E0E704F0004008B11C2039
:10083000DBE704F0804008B10920D6E704F000505F
:1008400008B10A20D1E704F0805008B10B20CCE7B2
:1008500004F0006008B10C20C7E704F0806008B124
:100860000D20C2E704F0807008B10E20BDE704F44B
:10087000000008B10F20B8E704F4800008B1102090
:10088000B3E704F4001008B11120AEE704F48010BF
:1008900008B11220A9E704F4002008B11320A4E74E
:1008A00004F4802008B114209FE704F4003008B15C
:1008B00015209AE704F4803008B1162095E704F477
:1008C000004008B1172090E704F4804008B11820D8
:1008D0008BE704F4005008B1192086E704F0080003
:1008E00008B11A2081E738467FE70000342C014028
:1008F00008E0FFFD70B500251048046801E00F48CE
:10090000046804F045000028F9D004F0040028B180
:100910000325042001F0F2FE284670BD04F001001A
:1009200028B10125012001F0E9FE2846F5E740F253
:10093000FF5001F0E3FE2846EFE70000342C0140B1
:1009400070B500250B48046801E00A48046804F00B
:1009500045000028F9D004F0040028B10325042044
:1009600001F0CCFE284670BD40F2FF5001F0C6FEFB
:100970002846F8E7342C01402DE9F04106460F46A1
:100980004FF000082248056801E02148056805F09D
:1009900045000028F9D005F0040038B14FF00308F5
:1009A000042001F0ABFE4046BDE8F08105F00100F7
:1009B00030B14FF00108012001F0A0FE4046F3E7FE
:1009C00001F0DAFEB04203D04FF010084046EBE7EA
:1009D00040F2FF5001F092FE002001F0F3FE0446C9
:1009E00004F4604018B9200C38804046DCE704F479
:1009F000005008B11320D7E704F4804008B110205C
:100A0000D2E704F4004008B10F20CDE74046CBE721
:100A1000342C014070B500264FF480350F4804682F
:100A200002E06D1E0D48046804F0450008B9002D71
:100A3000F7D115B104F0040028B10326042001F019
:100A40005DFE304670BD04F0400028B10026402015
:100A500001F054FE3046F5E73046F3E7342C014010
:100A600070B506460C4604F08000802808D104F0DA
:100A70007F0000EB800106F58E7000EBC10507E0FA
:100A800004F07F0000EB800106F55D7000EBC1050E
:100A900004F07F00287004F08000C00968702946C7
:100AA000304604F0CBFD002070BD70B506460C4604
:100AB00004F08000802808D104F07F0000EB800162
:100AC00006F58E7000EBC10505E004EB840106F528
:100AD0005D7000EBC1050020A87004F07F00287055
:100AE000C4F3C01068702946304604F07FFD002032
:100AF00070BD70B505460C4604F08000802805D115
:100B000004F07F01284604F09FFF02E0284604F02D
:100B100075FF002070BD2DE9F04106460D46904658
:100B20001F4605F08000802808D105F07F0000EB0B
:100B3000800106F58E7000EBC10407E005F07F0030
:100B400000EB800106F55D7000EBC10405F07F004D
:100B5000207005F08000C0096070C4F80880E7705C
:100B6000607808B12078E080022F01D10020207148
:100B70002146304604F0E2FC0020BDE8F0812DE97A
:100B8000F04105460E461746984606F07F0000EBFA
:100B9000800105F55D7000EBC104E760C4F81480C6
:100BA0000020A061607006F07F002070E8780128C6
:100BB00000D12761207820B92146284604F0E2FBC5
:100BC00003E02146284604F0A6FD0020BDE8F081A0
:100BD00008B500220092009A61F30A12009202699D
:100BE0001268009B1A4303691A6008BD70B5064677
:100BF0000C4604F08000802808D104F07F0000EB50
:100C0000800106F58E7000EBC10505E004EB840160
:100C100006F55D7000EBC1050120A87004F07F00AF
:100C20002870C4F3C01068702946304604F041FDB6
:100C3000002070BD2DE9F04107460D461646984646
:100C400005F07F0000EB800107F58E7000EBC1041A
:100C50000120607005F07F002070E66026610020B2
:100C6000A061C4F81480207820B92146384604F0E9
:100C700089FB03E02146384604F04DFD0020BDE825
:100C8000F0811CB50446204604F047FBE068C068CC
:100C90000090204604F002FF03280AD10120A07032
:100CA0004002A080009820F4705000F51050009091
:100CB00009E00020A0704020A080009820F470502F
:100CC00000F5A05000900098E168C86000200190F5
:100CD000019820F4005000F5005001900198E1685F
:100CE000486101201CBD0000F8B505460024002025
:100CF0000090284604F011FF064690E006F001003F
:100D000000287DD0E1B2284600F008FB0090009852
:100D100000F0010030B3012000FA04F72869406BAD
:100D2000B8432969486300200090009820F0010032
:100D3000401C009005F1180050F8240000998160D3
:100D4000E1B239480068426828469047E8780128AF
:100D500008D13CB940F21110405D042802D1284668
:100D600004F0BBFB0098C0F3C00060B1002000900D
:100D7000009820F008000830009005F1180050F8A5
:100D80002400009981600098C0F3001060B1002039
:100D90000090009820F010001030009005F118002D
:100DA00050F82400009981600098C0F3801060B171
:100DB00000200090009820F040004030009005F1A5
:100DC000180050F82400009981600098C0F340009A
:100DD00060B100200090009820F00200801C00907C
:100DE00005F1180050F82400009981600098C0F3C4
:100DF000C01028B12146284600F0A4FA002000E0E7
:100E00000BE00090009820F080008030009005F109
:100E1000180050F8240000998160641C7608002EA8
:100E20007FF46CAF0120F8BDD00000207CB50446F3
:100E3000002500200190204604F077FE06466FE072
:100E400006F00100002869D0E9B2204604F075FEE2
:100E50000190019800F00100C8B3002001900198B2
:100E600020F00100401C019004F1540050F82500CE
:100E700001998160E078012817D104F1540050F8FD
:100E800025000069009005EB850104F55D7000EB1D
:100E9000C10080680099C1F31201411A05EB850277
:100EA00004F55D7000EBC2008161E9B21E48006884
:100EB000026820469047E078012808D13DB940F209
:100EC0001110005D052802D1204604F006FB0198B0
:100ED000C0F3400060B100200190019820F00200B2
:100EE000801C019004F1540050F8250001998160A4
:100EF0000198C0F3C00088B10B48006881682046A3
:100F0000884700200190019820F0080008300190E7
:100F100004F1540050F82500019981606D1C760899
:100F2000002E8DD101207CBDD00000203EB50446AE
:100F3000A07A70B1D4F80C010090009820F0020063
:100F40000090009820F0010000900099D4F80C0166
:100F5000016000200190019820F00100401C0190E8
:100F60002069406801998843216948600848006801
:100F700081692046884700200290029820F00040B6
:100F800000F1004002900298E168486101203EBDF6
:100F9000D00000207CB5044600200190019820F08C
:100FA000100010300190E068806901998843E16881
:100FB0008861E068006A0090009800F00F0000EB84
:100FC000800104F55D7000EBC1050098C0F343405B
:100FD00007282DD2DFE800F02C04051D1E2C1F0071
:100FE00027E00098C0F30A1090B10098C0F30A12ED
:100FF0002046E96804F0ABFDE8680099C1F30A11E6
:101000000844E860A8690099C1F30A110844A8617E
:101010000FE00EE00DE0082204F2CC51204604F06F
:1010200096FDA8690099C1F30A110844A86100E07F
:1010300000BF00BFE068806901990843E1688861EA
:1010400001207CBD38B5044608480068C1682046C8
:10105000884700200090009820F008000830009099
:101060000098E1684861012038BD0000D0000020F0
:101070001FB50446002000904FF48970005D009079
:1010800023480068416920468847206980680190AC
:1010900000200390039820F4006000F500600390A6
:1010A0000398E1684861A07A70B3019800F00100EC
:1010B00050B340F21510005D012825D19DF80000C5
:1010C000032821D100200290029820F00100401C4A
:1010D0000290D4F80C01006802990843D4F80C116E
:1010E0000860029820F00200801C0290D4F80C01E5
:1010F000006802990843D4F80C110860054800689C
:1011000040F0060003490860012004B010BD000053
:10111000D000002010ED00E030B587B0044600207C
:10112000029006900590049003900190029820F0A0
:101130000100401C0290206940680299884321699F
:1011400048600021204604F07FFC00250BE0FF21D1
:1011500004F1180050F82500816004F1540050F8A3
:10116000250081606D1C6078A842F0D84FF0FF31F7
:101170002069816106986FF30F00401C0690069865
:1011800080B200F58030069006992069C16105980B
:1011900020F0080008300590059820F00100401C60
:1011A0000590059820F00200801C059005992069A3
:1011B000416105992069C0F88410049820F001006D
:1011C000401C0490049820F0080008300490049813
:1011D00020F00200801C04900499206901610499A8
:1011E00020694164206900680390039820F4FE6040
:1011F0000390039920690160204604F06EF90020F5
:101200000190019820F4805000F5805001900198E1
:10121000E168486103480068016920468847012069
:1012200007B030BDD00000202DE9F04106460F4642
:101230003946304604F0A0FC01214FF489708155F5
:101240000021801C8155002511E005EB850106F584
:101250008E7000EBC104012060702570E5800020D5
:10126000E0704020A0600020E06060616D1C70783C
:10127000A842EAD8002510E005EB850106F55D706F
:1012800000EBC104002060702570E580E070402014
:10129000A0600020E06060616D1C7078A842EBD80F
:1012A000304604F029F8304603F030FE0021304685
:1012B00004F0CCFC304603F0BCFE304604F08DFB5D
:1012C000BDE8F08138B5044600200090074800686A
:1012D000C16920468847009820F4801000F58010EE
:1012E00000900098E1684861012038BDD0000020DE
:1012F00038B504460020009007480068016A20467F
:101300008847009820F4001000F500100090009825
:10131000E1684861012038BDD000002030B50246A8
:1013200015692B6915696C6B24FA01F505F0010547
:1013300043EAC51302F1180555F82150AD6805EAD6
:10134000030030BD2DE9F84307460E460025002076
:10135000009006EB860107F58E7000EBC104D4E91E
:101360000501451AA068A84200D2A568E81C4FEA0A
:10137000900807F1180050F82600806900901BE0E3
:10138000D4E90501451AA068A84200D2A568E81C66
:101390004FEA9008ABB2F2B23846E16804F07DFC47
:1013A000E0682844E060A0692844A06107F11800C3
:1013B00050F8260080690090009880B2404506D918
:1013C000D4E90510884202D260690028D8D10120F2
:1013D000BDE8F8830246094B9A4201D2084801E071
:1013E0000648103801F000531BB1064B0B40C36098
:1013F00002E0044B0B408360704700001064024021
:10140000006002407D0F7D0F21B1026842F00102B1
:10141000026003E0026822F00102026070470000EF
:10142000016821F0010101600021016041608160DB
:10143000C1600161212141614A49884204D13D21B5
:10144000484A103A91608CE046491831884205D1EB
:101450004FF47461434A103A916082E0414930315F
:10146000884205D14FF474113E4A103A916078E0F9
:101470003C494831884205D14FF07461394A103AED
:1014800091606EE037496031884204D13649354A6F
:10149000103AD16065E033497831884204D133494C
:1014A000304A103AD1605CE02E499031884204D134
:1014B0002F492C4A103AD16053E02A49A83188427A
:1014C00005D14FF03D51274A103AD16049E02949F2
:1014D000884204D13D21274A083A116041E025495C
:1014E0001831884205D14FF47461224A083A1160DC
:1014F00037E020493031884205D14FF474111D4A3C
:10150000083A11602DE01B494831884205D14FF05F
:101510007461184A083A116023E016496031884224
:1015200004D11149134A121F11601AE01149783190
:10153000884204D10D490F4A121F116011E00D4974
:101540009031884204D10A490A4A121F116008E00A
:101550000849A831884204D14FF03D51054A121F75
:1015600011607047106002403D000020400F0020D5
:1015700000003D201064024021B1026842F02002C8
:10158000026003E0026822F020020260704710B59A
:1015900001F080034BB122B1436943F08003436102
:1015A00003E0436923F08003436180290BD02AB113
:1015B000036801F01E042343036004E0036801F0A4
:1015C0001E04A343036010BD10B500220268134B34
:1015D0001A40CC680B6823434C6923438C6923432E
:1015E000CC6923430C6A23434C6A23438C6A23430C
:1015F0004C6B23438C6B23431A430260426922F0F5
:101600000702D1E90B3423431A4342610B6943605B
:101610004B6883608B68C36010BD00003F801CF086
:10162000704700002DE9FC4107460D4600260024C6
:1016300000200090019008205B490860102048605D
:10164000402088600020C8604FF480600861084630
:1016500001F0F6F81020FFF7B3F8044614B1204665
:10166000BDE8FC815148008800044F4908603720DC
:101670004860402088600020C8604FF480600861A6
:10168000084601F0DDF83720FFF79AF804460CB160
:101690002046E5E74FF0FF304549086008204860E4
:1016A000302088600220C860002008610120486165
:1016B000084601F03BF800203B49086033204860B1
:1016C000402088600020C8604FF4806008610846B0
:1016D00001F0B6F83320FFF773F804460CB120464A
:1016E000BEE709E04FF4001001F04CF820B101F022
:1016F000A1F84DF82600761C2E48006840F22A61B9
:1017000008400028EED0082001F03CF828B108205D
:1017100000F0F4FF04242046A2E7022001F032F892
:1017200028B1022000F0EAFF0224204698E720209A
:1017300001F028F828B1202000F0E0FF0624204620
:101740008EE74FF4007001F01DF830B14FF40070D7
:1017500000F0D4FF0724204682E740F2FF5000F05B
:10176000CDFF00980006009901F47F4140EA012076
:10177000009901F47F0140EA1120009940EA1160CC
:10178000686001980006019901F47F4140EA012058
:10179000019901F47F0140EA1120019940EA1160AA
:1017A000286020465CE70000203A00200C02002060
:1017B000343A0020342C0140F0B50A4600210023C1
:1017C000002400BF3DE0012505FA01F3156805EA94
:1017D00003049C4234D105684F000326BE40B54344
:1017E000056015794E00B5400668354305601579EA
:1017F000012D02D01579022D16D185684F000326E0
:10180000BE40B543856055794E00B5408668354386
:101810008560456801268E40B543456045689679E8
:101820008E40B6B235434560C5684F000326BE40C2
:10183000B543C560D5794E00B540C6683543C5602F
:10184000491C1029BFD3F0BDF0B5002300244D077B
:10185000ED0E02FA05F3CE1000F1200555F82650E2
:101860004E07F70E0F26BE40B543CF1000F12006FD
:1018700046F82750CE1000F1200555F8265045EACD
:101880000304CE1000F1200545F82640F0BD0246C5
:10189000002013690B400BB1012000E000207047CD
:1018A00000BFFEE710B504460D48007B48B90C4860
:1018B000806830B10B48007818B901212046FFF745
:1018C00095F981212046FFF791F906480078022812
:1018D00005D11F23024A01212046FFF750F910BD10
:1018E0002C390020E500002010B504462B48406844
:1018F0002B4948602948806888600121204602F011
:1019000043FB1F2810D125480068264988420BD187
:101910002248407B012807DC2048807B012803DB2C
:101920001E48807B10280CDD1C49487B20220521A5
:1019300000F03EFD02201C4908702046FFF7B2FF70
:101940002AE01648417B00F10F02204600F09AFA87
:10195000002803DA2046FFF7A5FF1DE013480078B2
:10196000022819D011480078012815D00F480078B6
:10197000032811D00E480088002806DD0C48028894
:101980000C49204600F0E0F806E00948008818B944
:101990000021204600F0B8F810BD00002C390020CE
:1019A0004C39002055534243E5000020E40000205C
:1019B000E20000202C09002070B505460C460C48BA
:1019C0000078022807D181212846FFF70FF900206F
:1019D000074908700BE004F08000802807D1044814
:1019E0000078012803D00121284600F08DF870BD51
:1019F000E500002070B504460D4610480078022826
:101A000004D0032811D0042814D10DE00C48417BE8
:101A100000F10F02204600F035FA002803DA012118
:101A2000204600F071F806E000BF0021204600F0DB
:101A30006BF800E000BF00BF70BD0000E4000020B4
:101A40002C39002070B504460D460D48007810B1C1
:101A5000012812D103E02046FFF746FF0EE00948B7
:101A6000417B00F10F02204600F00CFA002803DA57
:101A70000121204600F048F800E000BF00BF70BD23
:101A8000E40000202C3900200021014A1170704729
:101A9000E400002010B5044600200C4908700C49F1
:101AA00008700C4800680168002088470121204622
:101AB000FFF71FF881212046FFF71BF81F23064A76
:101AC00001212046FFF75BF810BD0000E400002074
:101AD000E5000020640000202C39002010B50446E9
:101AE0000020064908700120054908701F23054A97
:101AF00001212046FFF743F810BD0000E40000205C
:101B0000E50000202C39002070B505460C460A4837
:101B10000A490860084604730020094908700D232B
:101B2000064A81212846FFF785F81F23054A01212F
:101B30002846FFF724F870BD555342534C39002016
:101B4000E40000202C39002070B506460D461446EE
:101B50000C488068A04202D20A48806800E0204613
:101B600084B209488068001B074988600020087318
:101B700004200649087023462A4681213046FFF793
:101B800059F870BD2C3900204C390020E4000020A9
:101B900000BFFEE77047000070B5002100230F2250
:101BA000C4781CB3174C246804F4E064C4F5E06402
:101BB000C4F30721C1F10404E3B20A4144789C4014
:101BC000E1B28478144021430C07210E0E4C0578B5
:101BD0006155047804F01F050124AC4005786D11AF
:101BE000AD0005F1E025C5F8004109E0047804F0F6
:101BF0001F050124AC40054D0678761145F82640B6
:101C000070BD00000CED00E000E400E080E100E0C9
:101C100002490143024A1160704700000000FA05C2
:101C20000CED00E010B5024802F0F0FB10BD000022
:101C30003002002010B5024802F05EFC10BD00002A
:101C40003002002010B5024802F096FC10BD0000E2
:101C5000300200207047000029B1064A1268024392
:101C6000044B1A6004E0034A12688243014B1A6075
:101C7000704700003038024029B1064A126802431A
:101C8000044B1A6004E0034A12688243014B1A6055
:101C9000704700004438024029B1064A12680243E6
:101CA000044B1A6004E0034A12688243014B1A6035
:101CB0007047000024380240F0B5002100220024C3
:101CC000022500260223324F3F6807F00C0121B1A4
:101CD000042905D0082937D105E02E4F076036E0EA
:101CE0002D4F076033E02A4F3F1F3F68C7F38056F0
:101CF000274F3F1F3F6807F03F036EB1264FB7FBEA
:101D0000F3F7DFF88CC0ACF1040CDCF800C0CCF3C6
:101D1000881C07FB0CF40CE01E4FB7FBF3F7DFF851
:101D200070C0ACF1040CDCF800C0CCF3881C07FBDD
:101D30000CF4174F3F1F3F68C7F301477F1C7D001E
:101D4000B4FBF5F7076002E0124F076000BF00BF69
:101D50000F4F3F6807F0F0010909104F7A5C0768E0
:101D6000D74047600A4F3F6807F4E051890A0B4F9C
:101D70007A5C4768D7408760054F3F6807F4604149
:101D8000490B064F7A5C4768D740C760F0BD00003A
:101D9000083802400024F40000127A0020020020DB
:101DA00070B506460C461546601907490968884211
:101DB00007D921220521304600F0FAFA4FF0FF3012
:101DC00070BD0020FCE70000F001002030B50446A3
:101DD0000A46507800F0010010B10E4B07210CE0CC
:101DE0000D480068C06904EBC40500EB8503187951
:101DF000411D1079884200DC11790848018004E017
:101E0000481E81B2585C064D68540029F8D1002064
:101E100030BD0000FA62000864000020E2000020EB
:101E20002C09002010B502460B4608210648018007
:101E300005E0481E81B20548405C054C605400290D
:101E4000F7D1002010BD0000E20000200963000867
:101E50002C09002010B502460B46082106480180D7
:101E600005E0481E81B20548405C054C60540029DD
:101E7000F7D1002010BD0000E2000020016300083F
:101E80002C09002070B505460E46144633480560FF
:101E90002078232841D00DDC1A2834D005DCB0B1DD
:101EA00003281CD0122851D11EE01B2821D01E2847
:101EB0004CD123E02A283FD004DC252832D0282822
:101EC00044D134E02F283CD05A283FD120E00120D3
:101ED000234908702146304600F090FA70BD214633
:101EE000304600F019FAF9E721463046FFF76EFF59
:101EF000F4E72146304600F079FAEFE72146304614
:101F000000F074FAEAE721463046FFF7A3FFE5E761
:101F100021463046FFF786FFE0E72146304600F0D5
:101F2000B7F9DBE72146304600F06CF9D6E72146E9
:101F3000304600F0E5F8D1E72146304600F0AEFA31
:101F4000CCE72146304600F081FAC7E72022052180
:101F5000304600F02DFA4FF0FF30BFE704020020BA
:101F6000000000202DE9F041054627480068B0F543
:101F7000405F02D22448006801E04FF4405004461C
:101F800022480068B4FBF0F086B2204800232049C4
:101F9000026803C9FEF791F907461E4800683346F8
:101FA0003A461D49D0F810C02846E047002808DA14
:101FB00011220421284600F0FBF94FF0FF30BDE864
:101FC000F0812346144A812114480068FEF732FE4E
:101FD0000F48D0E90020121940F100000C49C1E976
:101FE000002009480068001B074908600C48806809
:101FF000001B0B4988600448006810B90320094998
:1020000008700020DBE7000000020020EC01002047
:10201000F8010020640000202C09002004020020A8
:102020004C390020E40000202DE9F04105462D4800
:102030000068B0F5405F02D22A48006801E04FF422
:102040004050044628480068B4FBF0F086B22648A9
:1020500000232649026803C9FEF72FF907462448E2
:10206000006833463A462349D0F814C02846E04772
:10207000002808DA03220421284600F099F94FF0DD
:10208000FF30BDE8F0811948D0E90020121940F175
:1020900000001649C1E9002012480068001B1149E0
:1020A000086015488068001B134988600D48006867
:1020B00028B9002111480068FFF726FD10E0094803
:1020C0000068B0F5405F02D20648006801E04FF4B6
:1020D000405083B2074A012108480068FEF74FFDCF
:1020E0000020CEE700020020EC010020F8010020D3
:1020F000640000202C0900204C390020040200203C
:102100002DE9F04105460C4637480078002862D199
:102110003648007B00F08000802809D03349487B96
:102120002022052100F044F94FF0FF30BDE8F08196
:102130002F48006881682846884738B13A22022132
:10214000284600F035F94FF0FF30EFE7A0780006A1
:10215000E17840EA0140217940EA012061790843B1
:10216000C117244A03C2207AE17940EA01202249BA
:1021700008600846008882B21E4801682846FFF7BA
:102180000FFE002802DA4FF0FF30CFE70220164999
:10219000087018480AC8194800680026A1FB0027E3
:1021A00003FB007001FB06001249C1E90020124840
:1021B00000681249096848430F4908600B48806865
:1021C0000968884207D00949487B2022052100F090
:1021D000EFF8701EAAE74FF44050094908802846DE
:1021E000FFF7C0FEA2E70000E40000202C39002029
:1021F00064000020F801002000020020EC01002013
:10220000E200002070B504460D461C4800681C4AD8
:102210001C4943682046984738B13A22022120469B
:1022200000F0C6F84FF0FF3070BD16480068401E41
:10223000000E1549087013480068401E000C4870D5
:1022400010480088401E000A88700E480078401E22
:10225000C8700B480068000E087109480068000C3F
:10226000487107480088000A887105480078C871DD
:102270000820064908800020D6E7000064000020FE
:10228000EC010020F00100202C090020E2000020D9
:102290007CB505460E46002404E000201B49085585
:1022A000601C84B20C2CF8DB1948006801AA69464E
:1022B00043682846984738B13A220221284600F060
:1022C00077F84FF0FF307CBD08201049C8700098A7
:1022D000401E000E08710098401E000C48710098C6
:1022E000401E000A88710098401EC87102200872C2
:1022F0000198000C48720198000A88720198C8720F
:102300000C20044908800020DDE700002C09002093
:1023100064000020E200002010B50346002204E023
:1023200000201E4CA054501CC2B2122AF8DB7020B0
:102330001A4C20700C20E07119480078194C247850
:10234000A04221D01848164C247810F83400134CC1
:10235000A0701548124C247800EBC40040790F4C53
:10236000207311480E4C247800EBC40000790B4C0C
:1023700060730B480078401C094C207020460078A0
:10238000042801D1002020701220084C20800879F8
:10239000122801DC08792080002010BD2C090020C3
:1023A000E8010020E90100205C390020E200002063
:1023B00030B50C4B0C4C247803F834101302094C44
:1023C000094D2D7804EBC5046360074B1B785B1C3B
:1023D000054C237023461B78042B01D10023237066
:1023E00030BD00005C390020E901002002460020D9
:1023F000014B188070470000E200002070B50446D1
:102400000D460F48806840B10D49487B20220521C8
:10241000FFF7CEFF4FF0FF3070BD0A4800688168BB
:102420002046884738B13A2202212046FFF7C0FFF4
:102430004FF0FF30F0E700200349088000BFEBE7D2
:102440002C39002064000020E200002070B5054611
:102450000C46607800F00200022807D124220521F2
:102460002846FFF7A5FF4FF0FF3070BD08480088F1
:1024700082B2084801682846FFF792FC002802DA79
:102480004FF0FF30F1E700200349088000BFECE780
:1024900000020020F8010020E20000202DE9F041B8
:1024A00005460C4646480078002878D14548007B10
:1024B00000F08000802809D14249487B2022052174
:1024C000FFF776FF4FF0FF30BDE8F0813E4800682F
:1024D00081682846884738B13A2202212846FFF70A
:1024E00067FF4FF0FF30EFE737480068C1682846C4
:1024F000884738B1272202212846FFF759FF4FF0BD
:10250000FF30E1E7A0780006E17840EA0140217958
:1025100040EA012061790843C1172C4A03C2207A9E
:10252000E17940EA01202A4908600846008882B221
:10253000264801682846FFF733FC002802DA4FF0EE
:10254000FF30C1E721480CC8224800680026A2FBE2
:10255000001703FB007002FB06001C4AC2E90010D2
:102560001B4800681B490968484319490860154819
:1025700080680968884207D01249487B20220521DB
:10258000FFF716FF701E9FE701200D4908701048E5
:102590000068B0F5405F03D20D48006802E009E032
:1025A0004FF4405083B20C4A01210C480068FEF7FA
:1025B000E6FA03E02846FFF737FD85E7002083E7CA
:1025C000E40000202C39002064000020F8010020E5
:1025D00000020020EC0100202C0900200402002051
:1025E0007CB50546002400200090019000F0EAF838
:1025F00000F0007010B10E2420467CBD3D490988D2
:1026000088B26946FFF70EF804460CB12046F4E79D
:10261000012D36D1019800F4802000282ED03548B5
:1026200000880004344908603720486040208860F2
:102630000020C860A8020861084600F001F93720B0
:10264000FEF7BEF804460CB12046D6E702202A4920
:10265000086006204860402088600020C8604FF471
:1026600080600861084600F0EBF80620FEF7A8F845
:1026700004460CB12046C0E72046BEE7252420468C
:10268000BBE7019800F4803078B31A480088000452
:102690001949086037204860402088600020C860E1
:1026A0004FF480600861084600F0CAF83720FEF752
:1026B00087F804460CB120469FE700200E490860C9
:1026C00006204860402088600020C8604FF4806089
:1026D0000861084600F0B4F80620FEF771F80446D9
:1026E0000CB1204689E7204687E7FFE725242046EE
:1026F00083E700000C020020203A00200149086016
:1027000070470000382C0140014908607047000004
:10271000382C01400149086070470000A080254224
:1027200001490860704700008C85254200210B4B51
:1027300002681A601B1D42681A601A1D116821F098
:10274000F701D0E902231A4303691A4343691A4384
:102750001143024A0832116070470000242C0140E6
:1027600010B50121C802FFF797FA00214FF400606D
:10277000FFF792FA10BD000001480068C0B2704730
:10278000102C014001460020034A12680A400AB199
:10279000012000E000207047342C01400146002059
:1027A000034A12680A400AB1012000E00020704785
:1027B000342C01400248006800F00300704700001C
:1027C000002C014008B50146002000900248084452
:1027D00000900098006808BD142C014010B500F06E
:1027E000EBFC10BD29B1064A12680243044B1A6083
:1027F00004E0034A12688243014B1A6070470000EC
:102800003C2C014000210A4A116847F6FF629143BF
:10281000027D83681A4343681A43C3681A430368F6
:102820001A4303691A431143014A116070470000BB
:10283000042C01400148006870470000802C0140D2
:102840000021094B02681A601A1D11686FF30A0112
:10285000D0E901231A43C3681A4303691A43114399
:10286000014A121D11607047082C0140014908609F
:1028700070470000002C014008B501200090410382
:102880000448FFF704F808B1002000909DF800000C
:1028900008BD0000001C024070B504460025204819
:1028A0000068032802D12725284670BD1C4800680F
:1028B00038B11B480068012803D019480068022875
:1028C0002CD1B4F5805F02D127252846EDE7B4F579
:1028D000006F13D10120FFF783FE0546F5B90020F4
:1028E000104908750860486088604FF40060C8604F
:1028F000002008610846FFF785FF0FE00020FFF782
:102900006FFE054655B90020064908750860486005
:102910008860C86008610846FFF774FF2846C4E76E
:1029200008020020083A0020F0B5014600200022ED
:10293000BC4B1B7881F85630BB4B1B88A1F8543038
:10294000BA4B1B681A0E93090B70C2F383034B70CA
:1029500002F003038B70B54B1B68C3F30742CA70C8
:10296000B24B1B88C3F307220A71B04B1A784A7125
:102970005B681A0E1301CB80AC4B5B68C3F3074254
:10298000CB8843EA1213CB8002F00F030B72A74BE4
:102990009B88C3F30722D3094B72C2F380138B7257
:1029A000C2F34013CB72C2F300130B7300234B73BB
:1029B0009C4B1B681BB19B4B1B68012B4FD1930792
:1029C0001B0D0B61994B1A790B6943EA82030B616A
:1029D000964B9B681A0E0B6943EA92130B61C2F384
:1029E000C2030B7502F007034B75904B9B68C3F352
:1029F000074253098B75C2F38203CB7593075B0FB4
:102A00000B768A4B1B89C3F307220B7E43EAD21352
:102A10000B760B695B1C0024C1E912340B7ED1E9F3
:102A200012649B1C012505FA03F3DF17A6FB035C68
:102A300004FB03C306FB0733C1E912530C7A0123DD
:102A4000A3400B650027D1E912560B6DA5FB034C83
:102A500006FB03C305FB0733C1E912432DE0714BAD
:102A60001B68022B29D1714B1A7993069B0A0B61C3
:102A70006E4B9B681A0E0B6943EA02230B616B4B8A
:102A80009B68C3F307420B6913430B61674B1B89B8
:102A9000C3F307220B695B1C4FF40074A3FB0434DF
:102AA0004FF480660025A3FB067C04FB06C403FBF1
:102AB0000543C1E9127373100B65C2F3801301F86B
:102AC000193F93065B0E4B70584B1A7A4B7843EACA
:102AD000D2134B7002F07F038B70544BDB681A0EDD
:102AE000D309CB70C2F341130B71C2F382034B7154
:102AF00093071B0F8B714D4BDB68C3F307428B7938
:102B000043EA92138B71C2F34013CB7100230B7213
:102B100002F001034B72454B9B89C3F30722D30993
:102B20008B72C2F38013CB72C2F340130B73C2F3E8
:102B300000134B73C2F381038B7302F00303CB7357
:102B40003A4B1A7B53080B7401234B74384B1B68A8
:102B50001A0ECA741939364B1B68C3F307421402A4
:102B6000CC85334B1B88C3F30722CB8D1343CB8516
:102B70002F4B1A7814060C635B681A0E0B6B43EA32
:102B800002440C632A4B5B68C3F307420B6B43EAB6
:102B900002240C63264B9B88C3F307220B6B134361
:102BA0000B63234B1A7934235A54214B9B681A0E1A
:102BB00035235A541E4B9B68C3F3074214068C639B
:102BC0001B4B1B89C3F307228B6B43EA02448C63C4
:102BD000174B1A7A8B6B43EA02248C63144BDB6825
:102BE0001A0E8B6B13438B63114BDB68C3F30742E5
:102BF0003C235B5C43EA12143C235C5413071C0D1A
:102C0000CC870B4B9B89C3F30722CB8F1343CB8716
:102C1000074B1A7B540840235C54012441235C5425
:102C2000F0BD0000080200200C02002080390020C6
:102C30009039002008B500200090FFF71DFE012804
:102C400009D1684600F09CFB08B1FF2008BD009840
:102C5000C0F34320FAE7FF20F8E710B50424FFF79C
:102C6000E9FF0446042C01D1002010BDFF2C01D146
:102C70000220FAE70120F8E708B50020009000F0F4
:102C800069F9FFF76DFD00F0C7F900909DF80000AD
:102C900010B19DF8000008BD00F030F800909DF8DC
:102CA000000010B19DF80000F5E7002011490875FB
:102CB000086048608860C86008610846FFF7A2FDA8
:102CC0000D48FFF731FE00909DF8000030B90A4929
:102CD000B1F85410080400F039FB00909DF8000092
:102CE00020B94FF40060FFF7D7FD00909DF8000079
:102CF000D1E70000083A0020B039002038B50024A0
:102D000001200090FFF756FD10B92524204638BD5C
:102D100044480068042828D0002043490860022065
:102D20004860C02088600020C8604FF4806008615F
:102D30000846FFF785FDFDF7DDFD04460CB1204692
:102D4000E5E70020FFF73EFD384908600420FFF763
:102D500039FD364948600820FFF734FD3349886063
:102D60000C20FFF72FFD3149C8602E48006858B18C
:102D70002C480068012807D02A480068062803D09C
:102D800028480068022816D100202749086003203F
:102D90004860402088600020C8604FF4806008616F
:102DA0000846FFF74DFD69460320FDF7E5FD0446A3
:102DB0000CB12046ABE71B48006804282ED0BDF8B4
:102DC00000001B490860BDF80000000416490860B7
:102DD00009204860C02088600020C8604FF48060EF
:102DE00008610846FFF72CFDFDF784FD04460CB191
:102DF00020468CE70020FFF7E5FC0E490860042020
:102E0000FFF7E0FC0B4948600820FFF7DBFC0949AD
:102E100088600C20FFF7D6FC0649C86000242046D5
:102E200075E7000008020020203A002090390020B9
:102E30000C0200208039002030B58FB004460D46CA
:102E40004FF0FA511D48FEF7C5FA00211B48FEF766
:102E5000DBFA1A48FEF7E4FA4FF0006000901848D9
:102E60000190029400200390049005904FF480603C
:102E700006908000079080000890002009904FF491
:102E800040300A9004200B9003200C904FF4000077
:102E90000D9080100E9069460848FEF795FB0122C0
:102EA00010210648FEF773FB20210448FEF764FB5F
:102EB00001210248FEF7A8FA0FB030BD5864024065
:102EC000802C014030B58FB004460D464FF0FA51CA
:102ED0001E48FEF77FFA00211C48FEF795FA1B48B2
:102EE000FEF79EFA4FF0006000901948019002949E
:102EF000402003900020049005904FF480600690DD
:102F00008000079080000890002009904FF4403026
:102F10000A9004200B9003200C904FF400000D90B9
:102F200080100E9069460948FEF74EFB01221021E1
:102F30000648FEF72CFB20210448FEF71DFB01216B
:102F40000248FEF761FA0FB030BD0000586402403D
:102F5000802C01401CB501218C20FEF77DFE0C2247
:102F600008212A48FEF770FC0C2209212748FEF7A9
:102F70006BFC0C220A212548FEF766FC0C220B2173
:102F80002248FEF761FC0C2211462048FEF75CFC4B
:102F90000C2202211E48FEF757FC4FF4706000908F
:102FA00001208DF8050002208DF8040000208DF826
:102FB000060001208DF8070069461448FEF7FCFB67
:102FC0000420009069461248FEF7F6FB4FF480504B
:102FD000009000208DF8070069460C48FEF7ECFBD6
:102FE0004FF40050009000208DF8040001208DF86F
:102FF000070069460748FEF7DFFB0121C802FEF71C
:103000003BFE01218805FEF727FE1CBD000802409B
:10301000000C0240001C0240F8B500200090002582
:1030200000240026002776205F49087500200860EC
:1030300048608860C86008610846FFF7E3FB03202A
:10304000FFF714FC0120FFF765FB002057490860DB
:1030500048608860C8604FF4806008610846FFF7E8
:10306000EFFBFDF797FB00909DF8000010B19DF875
:103070000000F8BD4FF4D5704C4908600820486046
:10308000402088600020C8604FF4806008610846D6
:10309000FFF7D6FBFDF7BEFC00909DF8000020B9BD
:1030A000012043490860870712E000203F4908607B
:1030B00037204860402088600020C8604FF480605E
:1030C00008610846FFF7BCFB3720FDF779FB00904D
:1030D0000020364908603720486040208860002082
:1030E000C8604FF4806008610846FFF7A9FB3720ED
:1030F000FDF766FB00909DF80000002851D13BE0F1
:1031000000202A490860372048604020886000205D
:10311000C8604FF4806008610846FFF791FB3720D4
:10312000FDF74EFB00909DF8000010B19DF80000E7
:103130009FE7204838431D49086029204860402007
:1031400088600020C8604FF4806008610846FFF77F
:1031500077FBFDF7F5FB00909DF8000010B19DF89E
:10316000000086E70020FFF72DFB0546012080EADE
:10317000D57080F00106641C1EB94FF6FF708442C2
:10318000BED34FF6FF70844204D31B2000909DF8FD
:1031900000006EE705F08040050002D002200449DF
:1031A00008609DF8000064E7083A0020203A0020FB
:1031B000080200200000108010B54FF48070FFF767
:1031C000EDFA50B10020254908704FF48070FFF7E8
:1031D0009BFA01202249086037E00220FFF7DEFA5F
:1031E00030B10220FFF790FA02201C4908702CE051
:1031F0000820FFF7D3FA30B10820FFF785FA042042
:103200001649087021E02020FFF7C8FA30B12020CD
:10321000FFF77AFA06201149087016E01020FFF730
:10322000BDFA30B11020FFF76FFA05200B49087086
:103230000BE04FF40070FFF7B1FA30B14FF40070BB
:10324000FFF762FA07200549087000214CF23A3076
:10325000FFF7C8FA0148007810BD000014020020F2
:10326000180200202DE9F04180460D4614461E4606
:10327000002700202E4908702E49086001202E49A1
:10328000086000202D4908602D480068022801D1FF
:1032900004026D0A2B48046010202A49486040202F
:1032A00088600020C8604FF4806008610846FFF71E
:1032B000C7FA1020FDF784FA074617B13846BDE873
:1032C000F0814FF0FF302049086006FB04F04860B1
:1032D000902088600220C8600020086101204861B9
:1032E0000846FFF723FA1748056012201549486081
:1032F000402088600020C8604FF480600861084664
:10330000FFF79EFA1220FDF75BFA07460FB1384629
:10331000D5E7012140F22A30FFF764FA0120FFF7D8
:10332000FFF906FB04F14046FFF786FD3846C6E785
:103330001402002018020020100200202C2C014052
:1033400008020020203A0020343A002070B50446DC
:1033500000250A480460072008494860402088602A
:103360000020C8604FF4806008610846FFF768FAE3
:103370000720FDF725FA0546284670BD203A0020B3
:1033800070B50446002514B92625284670BD0F489F
:10339000008800040E4908600D20486040208860C5
:1033A0000020C8604FF4806008610846FFF748FAC3
:1033B0000D20FDF705FA05460DB12846E6E7002089
:1033C000FFF700FA20602846E0E700000C0200202A
:1033D000203A002010B5002400200A4908600C2083
:1033E0004860402088600020C8604FF48060086119
:1033F0000846FFF725FA0C20FDF7E2F904462046BF
:1034000010BD0000203A002070B500256C1E00E0C1
:10341000641E1748006838B91648006820B9164875
:10342000007808B9002CF3D1002011490860441E2F
:1034300000E0641E1148006800F4005008B1002C40
:10344000F7D10F480068012802D1FFF7C3FF0546F6
:103450000CB905B9042540F2FF50FFF74FF90648B3
:10346000007810B10448007870BD2846FCE70000E1
:103470001C0200201802002014020020342C0140FD
:103480001002002070B500256C1E00E0641E174875
:10349000006838B91648006820B91648007808B99D
:1034A000002CF3D1002011490860441E00E0641E86
:1034B0001148006800F4805008B1002CF7D10F4883
:1034C0000068012802D1FFF785FF05460CB905B950
:1034D000042540F2FF50FFF711F90648007810B1BB
:1034E0000448007870BD2846FCE700001C0200205C
:1034F0001802002014020020342C01401002002089
:103500002DE9F04180460F4615461E460024002056
:103510004549087045490860012045490860002078
:103520004449086044480068022801D105027F0A26
:1035300042480560102041494860402088600020D2
:10354000C8604FF4806008610846FFF779F91020E1
:10355000FDF736F9044614B12046BDE8F08138483D
:1035600000880004354908603720486040208860A2
:103570000020C8604FF4806008610846FFF760F9DA
:103580003720FDF71DF904460CB12046E5E72B482E
:103590000660172029494860402088600020C860E4
:1035A0004FF4806008610846FFF74AF91720FDF7DD
:1035B00007F904460CB12046CFE7204807601920E0
:1035C0001E494860402088600020C8604FF4806039
:1035D00008610846FFF734F91920FDF7F1F80446B1
:1035E0000CB12046B9E74FF0FF301649086006FBE2
:1035F00005F04860902088600020C86008610120C4
:1036000048610846FFF792F8012140F22A30FFF79F
:10361000E9F80120FFF784F806FB05F14046FFF7C3
:1036200051FC204699E700001402002018020020F7
:10363000100200202C2C014008020020203A00201B
:103640000C020020343A00202DE9F04180460C465F
:103650001546FFF702FB18B14FF0FF30BDE8F081CF
:103660004FF40070286006484FF400720023D0E940
:1036700012613046FCF721FE20600020EEE70000DA
:10368000B03900200020704738B5044631208DF84D
:10369000000000208DF801008DF8020001208DF857
:1036A00003006846FEF778FAFFF7E6FA10B14FF02C
:1036B000FF3038BD0020FCE710B504460A4890F9F9
:1036C0000000002804DAFFF7D7FA00200649087046
:1036D000FFF7C3FA28B1FF20034908704FF0FF300D
:1036E00010BD0020FCE700006C0000200146002017
:1036F00070472DE9F04107460C4615461E46690203
:1037000033464FF400722046FFF7ACFD18B14FF07E
:10371000FF30BDE8F081FFF777FE00BFFFF79DFAAD
:103720000028FBD100BFF4E72DE9F04107460C4625
:1037300015461E46690233464FF400722046FFF7D5
:10374000DFFE18B14FF0FF30BDE8F081FFF79AFEC1
:1037500000BFFFF782FA0028FBD100BFF4E77047F3
:103760000CB50020019000903448006840F480308F
:103770003249086000BF3148006800F40030009012
:103780000198401C0190009818B90198B0F5A06FFD
:10379000F1D12A48006800F4003010B101200090F7
:1037A00001E0002000900098012846D123484030D5
:1037B000006840F08050214940310860204800688E
:1037C00040F480401E4908601C48083000681B49CE
:1037D000083108600846006840F400400860084668
:1037E000006840F4A05008601648091F0860081FD0
:1037F000006840F08070091F086000BF0F48006833
:1038000000F000700028F9D040F205600E49086011
:103810000A480830006820F00300084908310860B1
:103820000846006840F00200086000BF0348083006
:10383000006800F00C000828F8D10CBD00380240E8
:103840000070004008544007003C0240042808D1A2
:103850004FF0E021096941F004014FF0E0221161CD
:1038600007E04FF0E021096921F004014FF0E02268
:10387000116170477047000010B51548006840F4AA
:103880007000134908601348006840F001001149B6
:10389000086000200F49083108600E4800680E4992
:1038A00008400C4908600D48091D0860081F0068A1
:1038B00020F48020091F0860002006490C310860B0
:1038C000FFF74EFF4FF0006001498039086010BDDE
:1038D00088ED00E000380240FFFFF6FE10300024C3
:1038E00010B540F225511D4800F04AF810B31B48AE
:1038F00000F000F9C4B21A48008800F40040C8B9CA
:103900001748008800F4804060B10A2C03D00020E2
:103910001349088020E01248008840F40040104914
:10392000088019E00D2C06D10D48008840F4804035
:103930000B49088010E00A480088C0F30D000949CF
:103940000C5407480088401C054908800846008838
:10395000C72801DD0020088010BD000000100140D4
:10396000940000202408002021B1828942F40052F2
:10397000828104E082894DF6FF731A40828170478C
:1039800070B50246002400230025002040F66A1688
:10399000B14200D100BFC1F3421501F01F0301265F
:1039A00006FA03F3012D02D19689334006E0022D79
:1039B00002D1168A334001E0968A33400C12012668
:1039C00006FA04F41688344013B10CB1012000E06B
:1039D000002070BDF0B5034600240026002500201D
:1039E00040F66A17B94200D100BF1846C1F342142D
:1039F00001F01F06012707FA06F5012C01D10C3052
:103A000004E0022C01D1103000E014301AB1076834
:103A10002F43076002E00768AF430760F0BD000076
:103A20002DE9FF4705460E460024A14600BFA046EB
:103A3000B08900B100BF2C8A24F44054F0880443BC
:103A40002C82AC8941F20C608443B08831890843F0
:103A5000718908430443AC81AC8A24F44074B08972
:103A60000443AC826846FEF727F92048854202D01D
:103A70001F48854202D1DDF80C9001E0DDF8089086
:103A8000A88900F4004040B109EBC90000EB09101F
:103A900031684900B0FBF1F707E009EBC90000EB22
:103AA000091031688900B0FBF1F76420B7FBF0F032
:103AB00004012009642101FB1078A88900F400406A
:103AC00040B1322000EBC800B0FBF1F000F007007D
:103AD000044308E0322000EB08106421B0FBF1F051
:103AE00000F00F0004432C81BDE8FF870010014067
:103AF0000014014001468888C0F30800704770B583
:103B000004460D46D4F8E40529464268204690470D
:103B1000002070BD70B504460D464FF48970005DFD
:103B2000022802D0032812D100E000BF68880128D3
:103B30000CD100214FF48C700151D4F8E4052946D2
:103B4000826820469047204600F05EF804E029464F
:103B5000204600F021F800BF00BF70BD2DE9F04104
:103B600006460C46154600272B46224600213046C5
:103B7000FDF705F83846BDE8F0812DE9F04106462D
:103B80000C46154600272B46224600213046FDF7FD
:103B900051F83846BDE8F08170B504460D468021E5
:103BA0002046FDF723F800212046FDF71FF82046A8
:103BB00001F093FC70BD70B504460025052140F26C
:103BC0001110015500231A4619462046FCF7D7FF6D
:103BD000204601F082FC284670BD2DE9F0410446E4
:103BE0000E4615460027C4F83C51C4F8385102214E
:103BF00040F2111001552B46324600212046FDF7B8
:103C000019F83846BDE8F08170B504460025042156
:103C100040F21110015500231A4619462046FDF7BF
:103C200009F8204601F059FC284670BD70B50546DC
:103C30000E46002E51D105F58E7440F21110405DF4
:103C400002283DD1A168E069884211D9A168E069E4
:103C5000401AE061E878012803D1D4E90210084451
:103C6000E060A08B82B22846E168FFF786FF27E07C
:103C7000A168206AB0FBF1F201FB120078B9A168DB
:103C8000206A88420BD3D4E90801884207D2002277
:103C900011462846FFF771FF0020606210E0D5F85A
:103CA000E405C06848B14FF48970405D032804D131
:103CB000D5F8E405C168284688472846FFF77BFF0A
:103CC0004FF48B70405D012816D1284600F010FD9E
:103CD00000214FF48B7041550EE0D5F8E4054069A2
:103CE00050B14FF48970405D032805D1D5F8E40543
:103CF0003146426928469047002070BD70B50546A0
:103D00000E46A6BB05F55D7440F21110405D032818
:103D10003DD1A168E069884217D9A168E069401ADD
:103D2000E061E878012803D1D4E902100844E0609A
:103D3000A368E069984201D2E06900E0A06882B21D
:103D40002846E168FFF70AFF21E0D5F8E40500699D
:103D500048B14FF48970405D032804D1D5F8E405DB
:103D60000169284688472846FFF74EFF0FE0FFE726
:103D7000D5F8E405806950B14FF48970405D03289F
:103D800005D1D5F8E40531468269284690470020E0
:103D900070BD01460020704770B504460D46E888A6
:103DA000012804D029462046FFF7F6FE1AE04FF41A
:103DB0008970005D022802D003280DD105E00122A0
:103DC00009492046FFF709FF0BE0012204F588713D
:103DD0002046FFF702FF04E029462046FFF7DCFEFD
:103DE00000BF00BF70BD0000D8000020F8B5044639
:103DF0000E467088001208287ED2DFE800F09B048F
:103E0000162E9B9B6D89A078D4F8EC150A6869463C
:103E100090470546F088402804D04FF48970005D33
:103E2000012801D10820009089E0A078D4F8E41599
:103E30008A6A694690470546A07848B9207A0128E1
:103E400006D1A078D4F8E415CA6A694690470546B9
:103E500002206870C4F8F05571E0B078062834D2BA
:103E6000DFE800F0030B131B232BA078D4F8EC152C
:103E70004A686946904705462CE0A078D4F8EC15CE
:103E80008A6869469047054624E0A078D4F8EC1586
:103E9000CA686946904705461CE0A078D4F8EC153E
:103EA0000A6969469047054614E0A078D4F8EC15F5
:103EB0004A696946904705460CE0A078D4F8EC15AD
:103EC0008A6969469047054604E031462046FFF777
:103ED00063FEF8BD00BF32E0A078012813D1A078BE
:103EE000D4F8E4158A6A694690470546A87B2049BC
:103EF0000871E87B487100E01CE0287C88710D4661
:103F00000A2000901BE031462046FFF745FEE0E71F
:103F1000A078012809D1A078D4F8E415CA6A6946C6
:103F2000904705460721697009E031462046FFF7B2
:103F300033FECEE731462046FFF72EFEC9E700BF2D
:103F4000BDF8000088B1F08878B1F088BDF80010A5
:103F5000884202DDBDF8000000E0F0880090BDF866
:103F6000002029462046FFF738FE00BFB1E70000D9
:103F7000340000200146002002E0421CD0B2491C5F
:103F80000A78002AF9D17047024601EB810302F555
:103F90005D7000EBC300008B80B2704770B50446C3
:103FA0000D464FF48970005D022802D0032813D11A
:103FB00000E000BF01200C4908604FF48C700059EC
:103FC00020B10846006840F002000860022206495D
:103FD0002046FFF702FE04E029462046FFF7DCFDFD
:103FE00000BF00BF70BD0000DC0000202DE9F041E3
:103FF00004460D4617460026FCB12046FFF7BAFFDF
:10400000022101EB400038803A783046711CCEB274
:104010002A5403223046711CCEB22A540AE014F806
:10402000012B3046711CCEB22A5400223046711C3E
:10403000CEB22A5420780028F1D1BDE8F0810000EA
:1040400070B506460C46154609A0FCF7ADF94FF4CD
:104050008970805D032806D12B4622468221304696
:10406000FCF7E8FD02E007A0FCF79EF9002070BD18
:104070004849445F53656E645265706F7274200DD9
:104080000A0000004E4F20205553425F4F54475FB7
:10409000434F4E464947555245440D0A0000000023
:1040A0002DE9F04104460F4615461E46DDF81880FE
:1040B000204600F075FE2046FFF76BFEC4F8E4656D
:1040C000C4F8E885C4F8EC5539462046FDF7ACF84D
:1040D000D4F8E81508688047204600F027FEBDE8C0
:1040E000F08110B50446D4F8E405016A20468847FB
:1040F000002010BD10B50446D4F8E405416A2046FE
:104100008847002010BD000070B505460C46012C04
:1041100003D0214608A0FCF747F9012C04D1214621
:104120002846FDF767FC05E0022C03D182212846D2
:10413000FCF7DFFC002070BD49202D2D2D202564CB
:104140000D0A00002DE9FC4106460C460827012C0B
:1041500003D0214612A0FCF727F9012C04D12146F7
:104160003046FDF76FFC18E0022C16D13B466A463C
:1041700002213046FCF703FD0CA0FCF715F90025E1
:1041800006E01DF805100EA0FCF70EF9681CC5B27C
:10419000082DF6DB04A0FCF707F90020BDE8FC8140
:1041A0004F202D2D2D2025640D0A00004849442064
:1041B00072656365697665203A200D0A000000008B
:1041C000253032782000000070B504460D4681216C
:1041D0002046FCF745FC01212046FCF741FC8221EA
:1041E0002046FCF73DFC02212046FCF739FC204626
:1041F000FDF74AFC002070BD0246402008800148BF
:1042000070470000600100200246402008800148FD
:10421000704700006001002070B504460D46294635
:104220002046FFF7D1FF02231A0281212046FCF726
:1042300072FC02231A0201212046FCF76CFC0323C6
:10424000402282212046FCF766FC03234022022103
:104250002046FCF760FC2046FDF71CFC002070BDEA
:104260002DE9F04105460C4600260027207800F095
:104270006000002869D0202871D160780B2847D0D1
:1042800006DC022853D0032846D00A2855D149E03D
:10429000FE2802D0FF2850D126E06088E8B9E088E7
:1042A00001281AD1207800F08000802815D15049CB
:1042B0000968886980474F490870084600780028D7
:1042C00004DD01222846FFF788FC0CE02146284641
:1042D000FFF762FC0220BDE8F08121462846FFF787
:1042E0005BFC0220F7E72EE0608850B9E08840B917
:1042F000207800F08000802803D02846FDF7EEFBF0
:1043000005E021462846FFF747FC0220E3E71AE0D4
:10431000A0783949086016E0012237492846FFF79E
:104320005CFC10E060880012344908600BE0012258
:1043300032492846FFF751FC05E021462846FFF7A1
:104340002BFC0220C7E700BF4FE06078012811D0A6
:10435000062826D00A2803D00B2843D106E043E0E4
:10436000012227492846FFF738FC3BE0A078244982
:10437000087037E0207900F0010088B121792846E3
:10438000FCF7B7FB21792846FCF76AFB2179022369
:104390001A022846FCF7BFFB21792846FDF70CFBE3
:1043A00020E060882221B1EB202F08D1E08834285A
:1043B00001DD342000E0E0880646124F0CE0608802
:1043C0002121B1EB202F07D10F4FE088092801DD13
:1043D000092000E0E0880646324639462846FFF7C5
:1043E000FCFB00BF00BF00E000BF00BF002072E781
:1043F00064000020E0010020E8000020EC00002024
:10440000E4010020F000002024010020F8B504465B
:104410002069466C2069476BC7F3400046EAC01626
:10442000E069806830400090009800F00100A8B179
:1044300002252069406BA843216948630020009051
:10444000009820F00100401C00900099E069816014
:104450002848006801214268204690470098C0F330
:10446000400048B100200090009820F00200801C1D
:1044700000900099E06981600098C0F3C00048B1E5
:1044800000200090009820F008000830009000996B
:10449000E06981600098C0F3001048B100200090EE
:1044A000009820F01000103000900099E0698160C1
:1044B0000098C0F3801048B100200090009820F0D0
:1044C0004000403000900099E06981600098C0F39E
:1044D000C01068B101212046FCF734FF0020009095
:1044E000009820F08000803000900099E0698160A1
:1044F0000120F8BDD00000201CB50446A06D8068E6
:10450000019001982169D1F8841008400190019828
:1045100000F00100E8B100200190019820F00100B6
:10452000401C01900199A06D8160E07801280AD1BA
:10453000A06D00690090D4F8A4030099C1F31201A2
:10454000411AC4F8B4130B480068012102682046E0
:1045500090470198C0F3400048B1002001900198B5
:1045600020F00200801C01900199A06D8160012063
:104570001CBD0000D00000207CB505460024284664
:1045800001F0B8FA002865D0284601F0BEFA019083
:10459000019808B900207CBD0198C0F3C04018B153
:1045A0002846FCF743FC04430198C0F3804018B14F
:1045B0002846FCF799FB04430198C0F3400050B132
:1045C00000200090009820F00200801C00900098CD
:1045D000E968486100BF0198C00F18B12846FCF790
:1045E000A5FC04430198C0F3C02018B12846FCF78D
:1045F0003FFD04430198C0F3C00018B12846FCF702
:1046000021FD04430198C0F3001018B12846FCF7BF
:10461000C1FC04430198C0F3003018B12846FCF7F0
:104620007BFD04430198C0F3403018B12846FCF7E5
:1046300028FB04430198C0F3005018B12846FCF74A
:1046400041FE04430198C0F3405018B12846FCF7DE
:104650004FFE044320469EE790F8CC250A7090F860
:10466000CD254A7090F8CE3590F8CF2503EB022285
:104670004A8090F8D03590F8D12503EB02228A8049
:1046800090F8D23590F8D32503EB0222CA80CB886C
:104690004FF4A0721350012340F2111213547047CB
:1046A00010B504460023402219462046FCF733FA91
:1046B0000023402280212046FCF72DFA01214FF4EF
:1046C00089700155A078D4F8E82551688847002002
:1046D00010BD10B50446D4F8E8150869804740F2CB
:1046E0001310015D401E015503210155002010BD2E
:1046F00001460348026808694260002070470000D4
:10470000A000002010B50446D4F8E405C06920B12B
:10471000D4F8E405C16920468847002010BD70B573
:1047200004460D46A88818BBE88808BBA87800F0A6
:104730007F064FF48970005D032804D12946204686
:10474000FFF72AFA18E04FF48A70065531462046E2
:10475000FCF73EFA2046FFF757FA26B102214FF444
:104760008970015508E001214FF48970015503E07B
:1047700029462046FFF710FA70BD70B504460D4675
:10478000D4F8E4052946026820469047D4F8E81595
:1047900088688047002070BD70B504460D46A87833
:1047A0003049087008460078012804DD2946204673
:1047B000FFF7F2F955E04FF48970005D022802D04E
:1047C000032848D117E02748007880B125480078B1
:1047D00084F8100103214FF48970015521480178B4
:1047E0002046FFF7CAFF2046FFF70EFA02E02046F8
:1047F000FFF70AFA34E01B48007880B902214FF431
:10480000897001551748007884F81001154801781F
:104810002046FFF774F92046FFF7F6F91AE094F8FE
:10482000100110490978884211D094F810112046DF
:10483000FFF765F90B48007884F810010948017802
:104840002046FFF79AFF2046FFF7DEF902E02046F8
:10485000FFF7DAF904E029462046FFF79DF900BF8B
:1048600000BF70BDE0000020F8B504460D460026EC
:10487000688801280DD101214FF48C700151D4F8C2
:10488000E40529468268204690472046FFF7BCF998
:1048900039E06888022836D12879A0BB20694068B1
:1048A0000090A8880612062E22D2DFE806F0210327
:1048B000090F151B009820F070001030009017E0D1
:1048C000009820F070002030009011E0009820F057
:1048D0007000303000900BE0009820F07000403005
:1048E000009005E0009820F070005030009000BF6C
:1048F00000BF05480099016001214FF48B700155FC
:104900002046FFF781F9F8BDA00000201CB5044641
:1049100069462046FFF7A0FE9DF8000000F01F004A
:1049200020B1012807D002280FD109E069462046AE
:1049300000F016F811E06946204600F0F9F80CE0A6
:104940006946204600F046F807E09DF8000000F0B8
:1049500080012046FCF74AF900BF00BF00201CBDC3
:1049600070B505460C46002660780A2829D2DFE893
:1049700000F01923281E280A0528140F214628466E
:10498000FFF734FA22E021462846FFF7C8FE1DE073
:1049900021462846FFF700FF18E021462846FFF78A
:1049A000FBF913E021462846FFF7F8FA0EE021460E
:1049B0002846FFF759FF09E021462846FFF7AAF8E5
:1049C00004E021462846FFF7E7F800BF00BF304665
:1049D00070BD00002DE9F04105460E4600273479F0
:1049E0007078002857D001282BD0032875D14FF4B8
:1049F0008970405D022802D003281BD107E02CB14A
:104A0000802C03D021462846FCF7F0F817E0708888
:104A100030B92CB1802C03D021462846FCF7E6F8AB
:104A2000D5F8E40531468268284690472846FFF7C6
:104A3000EBF804E031462846FFF7AEF800BF00BFB0
:104A400070E04FF48970405D022802D003281BD12A
:104A500007E02CB1802C03D021462846FCF7C6F88D
:104A600017E0708878B95CB1802C09D021462846BF
:104A7000FCF71BF8D5F8E4053146826828469047D4
:104A80002846FFF7C1F804E031462846FFF784F8CE
:104A900000BF00BF46E04FF48970405D022802D09D
:104AA000032837D107E02CB1802C03D021462846BB
:104AB000FCF79CF833E004F08000802812D104F069
:104AC0007F0000EB800105F58E7000EBC10080785F
:104AD00020B101201549086016E022E000201349AA
:104AE000086011E004F0800070B904EB840105F562
:104AF0005D7000EBC100807818B101200B4908609F
:104B000002E0002009490860022208492846FFF710
:104B100064F804E031462846FFF73EF800BF00BFC6
:104B200000E000BF00BF3846BDE8F081D40000209F
:104B300070B504460D4600264FF48970005D0328C9
:104B400014D1287902280CDCD4F8E40529468268BF
:104B500020469047E88840B93EB92046FFF754F810
:104B600003E029462046FFF717F804E029462046CF
:104B7000FFF712F800BF00BF304670BD10B5044605
:104B80004FF48970015D401C01550421401E015500
:104B9000D4F8E815C8688047002010BD70B50546F8
:104BA0000C46012D05D12246054906A0FFF71EFA45
:104BB00004E02246024903A0FFF718FA004870BD3E
:104BC000EC0800204D534320436F6E666967000078
:104BD0007047704702461220088001487047000065
:104BE0002000002010B502A0FBF7DEFB10BD000086
:104BF000555342445F5553525F446576696365443B
:104C00006973636F6E6E65637465640D0A000000FE
:104C1000704770477047704770B505460C462DB910
:104C20002246064906A0FFF7E1F904E022460349BF
:104C300003A0FFF7DBF9014870BD0000EC0800207D
:104C40004D534320496E74657266616365000000D0
:104C50000246042008800148704700004000002000
:104C600070B505460C462246024903A0FFF7BEF97F
:104C7000004870BDEC0800204B696E6773746F6E5E
:104C800020546563686E6F6C6F677920436F6D7039
:104C9000616E7920496E632E0000000070B50546F4
:104CA0000C462DB92246064906A0FFF79FF904E0FD
:104CB0002246034905A0FFF799F9014870BD00009D
:104CC000EC08002044545233304732004D61737376
:104CD0002053746F7261676520696E204653204DC2
:104CE0006F64650070B505460C46012D05D122465E
:104CF000054906A0FFF77AF904E02246024907A019
:104D0000FFF774F9004870BDEC08002030303030F7
:104D10003030303030303141000000003030303041
:104D200030303030303031420000000038B50446B9
:104D30004FF4C060FCF76CFF4D208DF8000001209F
:104D40008DF8010003208DF8020001208DF803008A
:104D50006846FCF721FF4FF4C060FCF759FF4A207A
:104D60008DF8000001208DF8010002208DF802006E
:104D700001208DF803006846FCF70EFF4FF4C06079
:104D8000FCF746FF4B208DF8000001208DF8010054
:104D90008DF802008DF803006846FCF7FDFE38BD73
:104DA0001CB5044601210720FCF756FF0A22032107
:104DB0004948FCF749FD0A2205214748FCF744FD14
:104DC0000A2200214548FCF73FFD0A220121434801
:104DD000FCF73AFD0A2205214048FCF735FD0A227E
:104DE00011463E48FCF730FD0A220B213B48FCF7F8
:104DF0002BFD0A220C213948FCF726FD0A220D2141
:104E00003648FCF721FD0A2203213548FCF71CFD3A
:104E10000A2202213248FCF717FD0A2200213048FD
:104E2000FCF712FD2020009003208DF805000220E1
:104E30008DF8040069462848FCF7BEFC0820009065
:104E400003208DF8050002208DF8040000208DF865
:104E500006008DF8070069461F48FCF7ADFC43F6D5
:104E60002340009003208DF8050002208DF80400F7
:104E700000208DF806008DF8070069461748FCF7FA
:104E80009BFC0120009003208DF8050002208DF886
:104E9000040069461248FCF78FFC082000900320AC
:104EA0008DF8050002208DF8040069460C48FCF7D7
:104EB00083FC0420009003208DF8050002208DF86B
:104EC000040069460648FCF777FC01214FF0C0401A
:104ED000FCF7C2FE1CBD00000000024000040240BE
:104EE0000008024010B504464FF47A7104FB01F04B
:104EF00000F001F810BD0022C0EB0013D90000BF84
:104F0000531C1A468B4200D97047F9E73EB5044658
:104F100000250020029001900090207A01283DD1C8
:104F2000E068806B0190019820F480300190607AF5
:104F300028B1019820F4801000F5801001900198AC
:104F4000E168886300200290E068C06802900298DF
:104F500020F040000290029820F480000290029815
:104F600020F400300290029820F400200290029871
:104F7000E168C860204600F087F9E078012843D155
:104F8000009820F01E000A300090009820F02000C9
:104F9000203000900098E168886035E0E068C068E3
:104FA0000290029820F04000403002900298E168A0
:104FB000C860204600F068F900200190019820F4B4
:104FC000803000F580300190019820F4802000F5B9
:104FD00080200190019820F4002000F5002001902D
:104FE000019820F4001000F500100190607A28B1BB
:104FF000019820F4801000F5801001900198E1687C
:1050000088631420FFF76EFFE07801280FD1E06875
:1050100080680090009820F01E000A3000900098F0
:1050200020F02000203000900098E1688860284639
:105030003EBD70B588B0044600260020079006905B
:105040000590049003900021D4F80C0101602069C0
:1050500000680690069820F4C050069006992069D2
:105060000160E07A002863D1207A012804D1002170
:10507000204600F033FD03E00121204600F02EFD24
:105080004FF40070E1684862059880B200F50000B6
:10509000059005986FF30F0000F5007005900598D6
:1050A000E1688862059800EB1041049861F30F00F5
:1050B0000490049880B200F1007004900498E168B4
:1050C000C1F80401049800EB104161F30F00049053
:1050D000049880B200F5000004900499E068C0F8DC
:1050E0000811049800EB104161F30F00049004983C
:1050F00080B204900499E068C0F80C11049800EBA9
:10510000104161F30F000490049880B20490049958
:10511000E068C0F81011049800EB104161F30F0033
:105120000490049880B204900499E068C0F81411C7
:105130001021204600F088FC204600F05FFC002192
:105140002069016120694161491E20698161002156
:105150002069C16100252CE004F1180050F82500F9
:10516000006807900798C00F70B10020079007985B
:1051700020F0804000F180400790079820F0006008
:1051800000F10060079001E00020079004F1180092
:1051900050F8250007990160002104F1180050F82B
:1051A00025000161FF2104F1180050F825008160FD
:1051B0006D1C6078A842CFD800252CE004F1540083
:1051C00050F82500006801900198C00F70B10020D0
:1051D0000190019820F0804000F1804001900198FA
:1051E00020F0006000F10060019001E000200190DB
:1051F00004F1540050F8250001990160002104F1E8
:10520000540050F825000161FF2104F1540050F8CA
:10521000250081606D1C6078A842CFD800200390E3
:10522000039820F4807000F5807003902069006975
:1052300003998843084321690861E07801281DD15A
:1052400000200290029820F00100401C0290029879
:1052500020F00200801C02904021029861F38A0035
:105260000290029820F4803000F58030029002987D
:1052700061F359400290029920690163204600F0D1
:105280005FFB304608B070BDF8B504460026002527
:105290000020009000BF0320FFF72DFEE0680069AA
:1052A0000090681C05461349884201D90020F8BDCA
:1052B0000098C00F0028EED00025009820F00100D3
:1052C000401C00900098E168086100BFE068006938
:1052D0000090681C05460749884200D904E0009800
:1052E00000F001000028F1D100BF0320FFF703FE0A
:1052F0003046DCE7400D030008B5014600200022DF
:105300000092009A22F00102521C0092CA68926830
:10531000009B9A43CB689A6008BD0EB501460020F9
:10532000002200920A69926802928A6912680192C8
:10533000029AC2F3410232B1012A05D0022A09D0F1
:10534000032A0DD101E000BF00BF019A6FF30A02EA
:10535000019205E0019A6FF30A02D21C019200BF8C
:1053600000BF019B8A691360009A22F4807202F5E3
:10537000807200920A695268009B9A431A430B6933
:105380005A600EBDFEB5024600200024002502959D
:1053900000954D78012D52D193691D6802951D69C4
:1053A00000954D6955B9009D25F07F050095009D3C
:1053B00025F4C01505F50025009516E08E684D69A9
:1053C000B54207D98D684D610E7A009D66F30605DA
:1053D000009504E00E7D009D66F306050095009D96
:1053E00025F4C01505F500250095009D1D61D578B3
:1053F000012D06D10F7802F1180555F827500E69D6
:105400006E61029D25F0806505F180650295029D23
:1054100025F0004505F100450295029D1D60D578F7
:10542000002D59D14D69002D56D00E780125B5407B
:105430002C4315696D6B2543166975634CE00E7836
:1054400002F1540555F826502D6802950E7802F1A8
:10545000540555F826502D6900954D695DB90E7AB1
:10546000009D66F306050095009D25F4C01505F521
:10547000002500950CE08D684D610E7A009D66F365
:1054800006050095009D25F4C01505F5002500953D
:105490000F7802F1540555F82750009E2E61D578FB
:1054A000012D06D10F7802F1540555F827500E69E9
:1054B0006E61029D25F0806505F180650295029D73
:1054C00025F0004505F1004502950F7802F15405DD
:1054D00055F82750029E2E60FEBD0EB500210191A9
:1054E000019921F04041A1F180410191019921F4FC
:1054F000C01101F500210191019921F07F011831BE
:105500000191019A416D0A61C178012915D10021EB
:10551000009100F2CC51426D5161416D09680091DA
:10552000009921F0004101F1004100914FF08021EC
:105530000091009A416D0A6000BF0EBD3CB5024665
:1055400000200024019400944C78012C0CD10D789B
:1055500002F1180454F825300D780124AC40009D68
:1055600064F30F0500950BE00D7802F1540454F834
:1055700025300D780124AC40009D64F31F45009553
:105580001C680194019CC4F3C034E4B90D89019CEA
:1055900065F30A040194CD78019C65F3934401946A
:1055A0008D79019C65F399540194019C24F08054F9
:1055B00004F180540194019C24F4004404F5004457
:1055C0000194019C1C600C78012C08D1D47A34B968
:1055D0001469E46B009D2C431569EC6305E01469C4
:1055E000E469009D2C431569EC613CBD38B5034668
:1055F0000020002400944C78012C05D10D7803F193
:10560000180454F8252004E00D7803F1540454F8EC
:10561000252014680094009C24F400140094CC7895
:10562000032C02D0CC78022C05D1009C24F08054AD
:1056300004F180540094009C146038BD3CB50246CF
:1056400000200024019400944C78012C0CD10D789A
:1056500002F1180454F825300D780124AC40009D67
:1056600064F30F0500950BE00D7802F1540454F833
:1056700025300D780124AC40009D64F31F45009552
:10568000019C24F400440194019C1C600C78012CC2
:1056900008D1D47A34B91469E46B009DAC43156920
:1056A000EC6305E01469E469009DAC431569EC61A5
:1056B0003CBD38B503460A460020002400945478C7
:1056C000012C18D1157803F1180454F825100C6832
:1056D0000094009CE40F2CB1009C24F0804404F161
:1056E00080440094009C24F4001404F500140094F9
:1056F000009C0C600EE0157803F1540454F825105A
:105700000C680094009C24F4001404F50014009428
:10571000009C0C6038BDFEB505460C4600260027EF
:10572000002002900190607801287ED1217805F157
:10573000180050F8210000680290217805F1180047
:1057400050F8210000690190606948B901986FF331
:10575000120001900121019861F3DC40019017E0F3
:105760006169019861F3120001906069401EA168AF
:105770000844B0FBF1F1019861F3DC400190E0785E
:10578000012805D1019820F0C04000F1005001909F
:10579000227805F1180050F8220001990161E8789B
:1057A000012807D1227805F1180050F8220021695C
:1057B00041610DE0E07801280AD0606940B12178AC
:1057C000012000FA01F72869406B384329694863D2
:1057D000E078012813D12869806800900098C0F310
:1057E000002030B9029820F0005000F100500290E3
:1057F00005E0029820F0805000F18050029002985D
:1058000020F0806000F180600290029820F000405B
:1058100000F100400290227805F1180050F82200B3
:1058200002990160E078012800E008E06CD1A08ACC
:1058300083B222782846E16800F02FFA64E02178EC
:1058400005F1540050F8210000680290217805F11C
:10585000540050F8210000690190606950B9A168B6
:10586000019861F3120001900121019861F3DC407D
:10587000019013E0A068401E61690844A168B0FB74
:10588000F1F1019861F3DC4001900198C0F3C94047
:10589000A1684843019960F312010191227805F152
:1058A000540050F8220001990161E878012806D1DE
:1058B000227805F1540050F8220021694161E07816
:1058C00001280ED1607930B1029820F0005000F12B
:1058D0000050029005E0029820F0805000F18050C6
:1058E0000290029820F0806000F18060029002989F
:1058F00020F0004000F100400290227805F15400B1
:1059000050F82200029901603046FEBD08B5002122
:105910000091491EC26851606FF08041C2685161B8
:10592000009921F0004101F100410091009921F41A
:10593000006101F5006100910099C268916108BDA4
:1059400038B50446002500200090E16888616FF0BA
:105950008040E16848612046FFF7D8FFE07820B931
:10596000009820F0100010300090009820F40060A3
:1059700000F500600090009820F4805000F5805001
:105980000090009820F4005000F50050009000981E
:1059900020F4802000F580200090009820F4002062
:1059A00000F500200090009820F0080008300090DA
:1059B000009820F4801000F580100090009820F4EA
:1059C000001000F500100090E0688069009988439D
:1059D0000843E1688861284638BD08B501460020C3
:1059E00000220092009A22F00102521C0092CA6822
:1059F0009268009B1A43CB689A6008BDF8B50446CC
:105A00000025002600200090009820F010001030A3
:105A100000900098E168086100BFE06800690090AC
:105A2000701C06460749884200D904E00098C0F37C
:105A300000100028F1D100BF0320FFF75CFA2846D0
:105A4000F8BD0000400D0300F8B504460D460026E1
:105A5000002700200090009820F0200020300090C7
:105A6000009865F38A1000900098E168086100BF13
:105A7000E06800690090781C07460749884200D911
:105A800004E00098C0F340100028F1D100BF0320CB
:105A9000FFF731FA3046F8BD400D030008B5014666
:105AA00000200A6992680092009AC2F3410232B162
:105AB000012A06D0022A07D0032A07D102E00320D8
:105AC00004E000BF022001E0012000BF00BF08BDCC
:105AD0000146C868406900F00100704708B50269D6
